:1000000075B0007580FE75300075320078007F0F86
:100010007D00850069C2A77590007B0079007A0099
:100020007B38514C7B0E514C7B80514C7B01514CA9
:10003000120257E860FAF540120369120257E860AD
:10004000FAF544120369120257E860FAF55320A545
:10005000FD53530F53400F53440FE544F5F0740A1A
:10006000A42553F560E540F5F07464A4F562E5F06D
:10007000F561E5622560F56250020561E561B40154
:1000800008E562B42D080200FB40080200FB4003B3
:100090000200FBE5617035E562B405030200CC4067
:1000A000030200CC90062A7400936007FB5141A321
:1000B0000200A77BC0514C9006577400936007FB69
:1000C0005141A30200BA12035C020000E561700D09
:1000D000E562B43C030200DD40120200DD9006340C
:1000E0007400936025FB5141A30200E090063F7429
:1000F00000936029FB5141A30200EF90061E74009B
:100100009360B0FB5141A30200FE9006117BC051E9
:100110004C740093601AFB5141A302011190061127
:100120007BC0514C7400936018FB5141A302012421
:100130007E14120376120202DEF81201777E14801A
:10014000F112035C12014F12037612020280F89042
:1001500006F97B01514C7400936007FB5141A302E7
:100160000156229006617B01514C7400936007FB9D
:100170005141A302016A220DBD01139006707B015B
:10018000514C740093607AFB5141A3020182BD027D
:100190001390067D7B01514C7400936064FB5141C8
:1001A000A3020198BD03139006897B01514C740092
:1001B00093604EFB5141A30201AEBD04139006971C
:1001C0007B01514C7400936038FB5141A30201C480
:1001D000BD05139006A57B01514C7400936022FB72
:1001E0005141A30201DABD06139006B57B01514CC3
:1001F000740093600CFB5141A30201F07D000201E9
:1002000077221553E553B4FF177553091544E54498
:10021000B4FF0D7544091540E540B4FF0302022107
:10022000227B01514C90064A7400936007FB5141B8
:10023000A3020228D2A712035CC2A720A6FD0200D7
:10024000008B90D2A1D2A2C2A27153228B90C2A1E4
:10025000D2A2C2A271532230800B30811A3082297F
:10026000308338804930845E30856A3086763087C6
:100270004DD280C281803730845130855D308669AF
:1002800030873ED281C28280253084443085503010
:10029000865C308726D282C28380133084553085B5
:1002A00057308659308711D283C2800202AE2202B3
:1002B00002F30202F80202FD020302020307020334
:1002C0000C78100202577801020257780202025796
:1002D0007803020257780402025778050202577821
:1002E0000602025778070202577808020257780977
:1002F000020257780A020257780B020257780C0262
:100300000257780D020257780E020257780F020248
:1003100057C2A0E54090060093F5B012034A75B0AD
:1003200000D2A022C2A3E54490060093F5B01203C8
:100330004A75B000D2A322C2A4E55390060093F5FB
:10034000B012034A75B000D2A422790A7AFFDAFE0D
:10035000D9FA2279327AFFDAFED9FA22780A79FFBD
:100360007AFFDAFED9FAD8F622780579FF7AFFDA31
:10037000FED9FAD8F622C28CC28D758901758C3CE3
:10038000758A98D28C120311120324120337308D10
:0A039000F4C28CC28DDFDF7F0F2264
:100600003F065B4F666D7D077F6F777C395E797142
:100610003F4F56454E205354415254454400564195
:100620004C5545203E203330300056414C55452036
:100630003C20350056414C5545203E203630005672
:10064000414C5545203C203630004F56454E2053F6
:10065000544F505045440054525920414741494E4F
:100660000043617473206C6F7665206E6170730057
:100670004374726C2B5A2073617665730044432077
:100680003E204D415256454C005652206665656CE1
:1006900073207265616C004C696E757820697320F7
:1006A00066726565004461726B206D6F64652073CE
:1006B000617665730049555420666F6F64206772D8
:1006C0006561740046726F677320667265657A654E
:1006D000004443203E204D415256454C00436C6F30
:1006E000636B207469636B696E67004261746D614E
:1006F0006E203D20676F61740053484146494E208B
:09070000464F554E44204D4500C2
:00000001FF
